{
  "_format": "hh3-artifact-1",
  "contractName": "ParimutuelPredictionMarket",
  "sourceName": "contracts/agent_wallet.sol",
  "abi": [
    {
      "inputs": [],
      "stateMutability": "nonpayable",
      "type": "constructor"
    },
    {
      "anonymous": false,
      "inputs": [
        {
          "indexed": true,
          "internalType": "uint256",
          "name": "questionId",
          "type": "uint256"
        },
        {
          "indexed": true,
          "internalType": "address",
          "name": "user",
          "type": "address"
        },
        {
          "indexed": true,
          "internalType": "uint256",
          "name": "outcomeIndex",
          "type": "uint256"
        },
        {
          "indexed": false,
          "internalType": "uint256",
          "name": "amount",
          "type": "uint256"
        }
      ],
      "name": "BetPlaced",
      "type": "event"
    },
    {
      "anonymous": false,
      "inputs": [
        {
          "indexed": true,
          "internalType": "uint256",
          "name": "questionId",
          "type": "uint256"
        },
        {
          "indexed": true,
          "internalType": "uint256",
          "name": "winningOutcome",
          "type": "uint256"
        }
      ],
      "name": "MarketResolved",
      "type": "event"
    },
    {
      "anonymous": false,
      "inputs": [
        {
          "indexed": true,
          "internalType": "uint256",
          "name": "questionId",
          "type": "uint256"
        },
        {
          "indexed": false,
          "internalType": "string",
          "name": "question",
          "type": "string"
        },
        {
          "indexed": false,
          "internalType": "string[]",
          "name": "outcomeNames",
          "type": "string[]"
        },
        {
          "indexed": false,
          "internalType": "uint256",
          "name": "endTime",
          "type": "uint256"
        }
      ],
      "name": "QuestionAdded",
      "type": "event"
    },
    {
      "anonymous": false,
      "inputs": [
        {
          "indexed": true,
          "internalType": "uint256",
          "name": "questionId",
          "type": "uint256"
        },
        {
          "indexed": true,
          "internalType": "address",
          "name": "user",
          "type": "address"
        },
        {
          "indexed": false,
          "internalType": "uint256",
          "name": "amount",
          "type": "uint256"
        }
      ],
      "name": "WinningsClaimed",
      "type": "event"
    },
    {
      "inputs": [
        {
          "internalType": "string",
          "name": "_question",
          "type": "string"
        },
        {
          "internalType": "string[]",
          "name": "_outcomeNames",
          "type": "string[]"
        },
        {
          "internalType": "uint256",
          "name": "_endTime",
          "type": "uint256"
        }
      ],
      "name": "addQuestion",
      "outputs": [],
      "stateMutability": "nonpayable",
      "type": "function"
    },
    {
      "inputs": [
        {
          "internalType": "uint256",
          "name": "_questionId",
          "type": "uint256"
        }
      ],
      "name": "claimWinnings",
      "outputs": [],
      "stateMutability": "nonpayable",
      "type": "function"
    },
    {
      "inputs": [
        {
          "internalType": "uint256",
          "name": "_questionId",
          "type": "uint256"
        }
      ],
      "name": "getMarket",
      "outputs": [
        {
          "internalType": "string",
          "name": "",
          "type": "string"
        },
        {
          "components": [
            {
              "internalType": "string",
              "name": "name",
              "type": "string"
            },
            {
              "internalType": "uint256",
              "name": "totalBetAmount",
              "type": "uint256"
            }
          ],
          "internalType": "struct ParimutuelPredictionMarket.Outcome[]",
          "name": "",
          "type": "tuple[]"
        },
        {
          "internalType": "uint256",
          "name": "",
          "type": "uint256"
        },
        {
          "internalType": "bool",
          "name": "",
          "type": "bool"
        },
        {
          "internalType": "uint256",
          "name": "",
          "type": "uint256"
        },
        {
          "internalType": "uint256",
          "name": "",
          "type": "uint256"
        }
      ],
      "stateMutability": "view",
      "type": "function"
    },
    {
      "inputs": [
        {
          "internalType": "uint256",
          "name": "",
          "type": "uint256"
        },
        {
          "internalType": "address",
          "name": "",
          "type": "address"
        }
      ],
      "name": "hasClaimed",
      "outputs": [
        {
          "internalType": "bool",
          "name": "",
          "type": "bool"
        }
      ],
      "stateMutability": "view",
      "type": "function"
    },
    {
      "inputs": [],
      "name": "oracle",
      "outputs": [
        {
          "internalType": "address",
          "name": "",
          "type": "address"
        }
      ],
      "stateMutability": "view",
      "type": "function"
    },
    {
      "inputs": [
        {
          "internalType": "uint256",
          "name": "_questionId",
          "type": "uint256"
        },
        {
          "internalType": "uint256",
          "name": "_outcomeIndex",
          "type": "uint256"
        },
        {
          "internalType": "uint256",
          "name": "_amount",
          "type": "uint256"
        }
      ],
      "name": "placeBet",
      "outputs": [],
      "stateMutability": "payable",
      "type": "function"
    },
    {
      "inputs": [],
      "name": "questionCounter",
      "outputs": [
        {
          "internalType": "uint256",
          "name": "",
          "type": "uint256"
        }
      ],
      "stateMutability": "view",
      "type": "function"
    },
    {
      "inputs": [
        {
          "internalType": "uint256",
          "name": "",
          "type": "uint256"
        }
      ],
      "name": "questions",
      "outputs": [
        {
          "internalType": "string",
          "name": "question",
          "type": "string"
        },
        {
          "internalType": "uint256",
          "name": "endTime",
          "type": "uint256"
        },
        {
          "internalType": "bool",
          "name": "marketResolved",
          "type": "bool"
        },
        {
          "internalType": "uint256",
          "name": "winningOutcome",
          "type": "uint256"
        },
        {
          "internalType": "uint256",
          "name": "totalMarketPool",
          "type": "uint256"
        }
      ],
      "stateMutability": "view",
      "type": "function"
    },
    {
      "inputs": [
        {
          "internalType": "uint256",
          "name": "_questionId",
          "type": "uint256"
        },
        {
          "internalType": "uint256",
          "name": "_winningOutcome",
          "type": "uint256"
        }
      ],
      "name": "resolveMarket",
      "outputs": [],
      "stateMutability": "nonpayable",
      "type": "function"
    },
    {
      "inputs": [
        {
          "internalType": "address",
          "name": "",
          "type": "address"
        },
        {
          "internalType": "uint256",
          "name": "",
          "type": "uint256"
        },
        {
          "internalType": "uint256",
          "name": "",
          "type": "uint256"
        }
      ],
      "name": "userBets",
      "outputs": [
        {
          "internalType": "uint256",
          "name": "",
          "type": "uint256"
        }
      ],
      "stateMutability": "view",
      "type": "function"
    }
  ],
  "bytecode": "0x60a0604052348015600e575f5ffd5b503373ffffffffffffffffffffffffffffffffffffffff1660808173ffffffffffffffffffffffffffffffffffffffff16815250506080516121906100695f395f818161033a0152818161087f01526108cd01526121905ff3fe608060405260043610610090575f3560e01c80638e67750c116100585780638e67750c1461018a578063b7b064a8146101b2578063d195a054146101dc578063e71c969714610218578063eb44fdd31461023457610090565b806331b1b9781461009457806360557333146100d4578063677bd9ff146100fc5780637dc0d1d014610124578063873f6f9e1461014e575b5f5ffd5b34801561009f575f5ffd5b506100ba60048036038101906100b59190610f4f565b610275565b6040516100cb959493929190611013565b60405180910390f35b3480156100df575f5ffd5b506100fa60048036038101906100f5919061106b565b610338565b005b348015610107575f5ffd5b50610122600480360381019061011d9190610f4f565b610511565b005b34801561012f575f5ffd5b5061013861087d565b60405161014591906110e8565b60405180910390f35b348015610159575f5ffd5b50610174600480360381019061016f919061112b565b6108a1565b6040516101819190611169565b60405180910390f35b348015610195575f5ffd5b506101b060048036038101906101ab9190611390565b6108cb565b005b3480156101bd575f5ffd5b506101c6610a77565b6040516101d39190611418565b60405180910390f35b3480156101e7575f5ffd5b5061020260048036038101906101fd9190611431565b610a7d565b60405161020f9190611418565b60405180910390f35b610232600480360381019061022d9190611481565b610aa8565b005b34801561023f575f5ffd5b5061025a60048036038101906102559190610f4f565b610d3b565b60405161026c9695949392919061161d565b60405180910390f35b5f602052805f5260405f205f91509050805f018054610293906116b7565b80601f01602080910402602001604051908101604052809291908181526020018280546102bf906116b7565b801561030a5780601f106102e15761010080835404028352916020019161030a565b820191905f5260205f20905b8154815290600101906020018083116102ed57829003601f168201915b505050505090806002015490806003015f9054906101000a900460ff16908060040154908060050154905085565b7f000000000000000000000000000000000000000000000000000000000000000073ffffffffffffffffffffffffffffffffffffffff163373ffffffffffffffffffffffffffffffffffffffff16146103c6576040517f08c379a00000000000000000000000000000000000000000000000000000000081526004016103bd90611757565b60405180910390fd5b5f5f5f8481526020019081526020015f209050806003015f9054906101000a900460ff161561042a576040517f08c379a0000000000000000000000000000000000000000000000000000000008152600401610421906117bf565b60405180910390fd5b80600201544211610470576040517f08c379a000000000000000000000000000000000000000000000000000000000815260040161046790611827565b60405180910390fd5b806001018054905082106104b9576040517f08c379a00000000000000000000000000000000000000000000000000000000081526004016104b09061188f565b60405180910390fd5b6001816003015f6101000a81548160ff02191690831515021790555081816004018190555081837f6dfc24f0f2fb42e49fb4fa3ffa8abb148cab908a1fb8335b3f128a08b2594af160405160405180910390a3505050565b5f5f5f8381526020019081526020015f209050806003015f9054906101000a900460ff16610574576040517f08c379a000000000000000000000000000000000000000000000000000000000815260040161056b906118f7565b60405180910390fd5b60035f8381526020019081526020015f205f3373ffffffffffffffffffffffffffffffffffffffff1673ffffffffffffffffffffffffffffffffffffffff1681526020019081526020015f205f9054906101000a900460ff161561060d576040517f08c379a00000000000000000000000000000000000000000000000000000000081526004016106049061195f565b60405180910390fd5b5f60025f3373ffffffffffffffffffffffffffffffffffffffff1673ffffffffffffffffffffffffffffffffffffffff1681526020019081526020015f205f8481526020019081526020015f205f836004015481526020019081526020015f205490505f81116106b2576040517f08c379a00000000000000000000000000000000000000000000000000000000081526004016106a9906119c7565b60405180910390fd5b5f826001018360040154815481106106cd576106cc6119e5565b5b905f5260205f2090600202016001015490505f810361075257600160035f8681526020019081526020015f205f3373ffffffffffffffffffffffffffffffffffffffff1673ffffffffffffffffffffffffffffffffffffffff1681526020019081526020015f205f6101000a81548160ff02191690831515021790555050505061087a565b5f836005015490505f8282856107689190611a3f565b6107729190611aad565b9050600160035f8881526020019081526020015f205f3373ffffffffffffffffffffffffffffffffffffffff1673ffffffffffffffffffffffffffffffffffffffff1681526020019081526020015f205f6101000a81548160ff0219169083151502179055505f811115610874573373ffffffffffffffffffffffffffffffffffffffff166108fc8290811502906040515f60405180830381858888f19350505050158015610823573d5f5f3e3d5ffd5b503373ffffffffffffffffffffffffffffffffffffffff16867f5380cf6fe903b40c6d5a9e0dfbca2f3a423f0a21520b4d5947ed5169bdba946d8360405161086b9190611418565b60405180910390a35b50505050505b50565b7f000000000000000000000000000000000000000000000000000000000000000081565b6003602052815f5260405f20602052805f5260405f205f915091509054906101000a900460ff1681565b7f000000000000000000000000000000000000000000000000000000000000000073ffffffffffffffffffffffffffffffffffffffff163373ffffffffffffffffffffffffffffffffffffffff1614610959576040517f08c379a000000000000000000000000000000000000000000000000000000000815260040161095090611b4d565b60405180910390fd5b5f60015f81548092919061096c90611b6b565b9190505590505f5f5f8381526020019081526020015f20905084815f0190816109959190611d52565b508281600201819055505f5f90505b8451811015610a33578160010160405180604001604052808784815181106109cf576109ce6119e5565b5b602002602001015181526020015f815250908060018154018082558091505060019003905f5260205f2090600202015f909190919091505f820151815f019081610a199190611d52565b5060208201518160010155505080806001019150506109a4565b50817fc57ca9dabaed1583a886813e3659c6ae2447e7bba5f95ae49622fbc745388c0a868686604051610a6893929190611edc565b60405180910390a25050505050565b60015481565b6002602052825f5260405f20602052815f5260405f20602052805f5260405f205f9250925050505481565b5f5f5f8581526020019081526020015f209050806003015f9054906101000a900460ff1615610b0c576040517f08c379a0000000000000000000000000000000000000000000000000000000008152600401610b0390611f69565b60405180910390fd5b80600201544210610b52576040517f08c379a0000000000000000000000000000000000000000000000000000000008152600401610b4990611fd1565b60405180910390fd5b80600101805490508310610b9b576040517f08c379a0000000000000000000000000000000000000000000000000000000008152600401610b9290612039565b60405180910390fd5b813414610bdd576040517f08c379a0000000000000000000000000000000000000000000000000000000008152600401610bd4906120a1565b60405180910390fd5b5f8211610c1f576040517f08c379a0000000000000000000000000000000000000000000000000000000008152600401610c1690612109565b60405180910390fd5b81816001018481548110610c3657610c356119e5565b5b905f5260205f2090600202016001015f828254610c539190612127565b9250508190555081816005015f828254610c6d9190612127565b925050819055508160025f3373ffffffffffffffffffffffffffffffffffffffff1673ffffffffffffffffffffffffffffffffffffffff1681526020019081526020015f205f8681526020019081526020015f205f8581526020019081526020015f205f828254610cde9190612127565b92505081905550823373ffffffffffffffffffffffffffffffffffffffff16857f1b8a9031cb9351278d70a994f81536e9e08c91162e64f92b2fe4766fb7a891b485604051610d2d9190611418565b60405180910390a450505050565b6060805f5f5f5f5f5f5f8981526020019081526020015f209050805f01816001018260020154836003015f9054906101000a900460ff1684600401548560050154858054610d88906116b7565b80601f0160208091040260200160405190810160405280929190818152602001828054610db4906116b7565b8015610dff5780601f10610dd657610100808354040283529160200191610dff565b820191905f5260205f20905b815481529060010190602001808311610de257829003601f168201915b5050505050955084805480602002602001604051908101604052809291908181526020015f905b82821015610eef578382905f5260205f2090600202016040518060400160405290815f82018054610e56906116b7565b80601f0160208091040260200160405190810160405280929190818152602001828054610e82906116b7565b8015610ecd5780601f10610ea457610100808354040283529160200191610ecd565b820191905f5260205f20905b815481529060010190602001808311610eb057829003601f168201915b5050505050815260200160018201548152505081526020019060010190610e26565b5050505094509650965096509650965096505091939550919395565b5f604051905090565b5f5ffd5b5f5ffd5b5f819050919050565b610f2e81610f1c565b8114610f38575f5ffd5b50565b5f81359050610f4981610f25565b92915050565b5f60208284031215610f6457610f63610f14565b5b5f610f7184828501610f3b565b91505092915050565b5f81519050919050565b5f82825260208201905092915050565b8281835e5f83830152505050565b5f601f19601f8301169050919050565b5f610fbc82610f7a565b610fc68185610f84565b9350610fd6818560208601610f94565b610fdf81610fa2565b840191505092915050565b610ff381610f1c565b82525050565b5f8115159050919050565b61100d81610ff9565b82525050565b5f60a0820190508181035f83015261102b8188610fb2565b905061103a6020830187610fea565b6110476040830186611004565b6110546060830185610fea565b6110616080830184610fea565b9695505050505050565b5f5f6040838503121561108157611080610f14565b5b5f61108e85828601610f3b565b925050602061109f85828601610f3b565b9150509250929050565b5f73ffffffffffffffffffffffffffffffffffffffff82169050919050565b5f6110d2826110a9565b9050919050565b6110e2816110c8565b82525050565b5f6020820190506110fb5f8301846110d9565b92915050565b61110a816110c8565b8114611114575f5ffd5b50565b5f8135905061112581611101565b92915050565b5f5f6040838503121561114157611140610f14565b5b5f61114e85828601610f3b565b925050602061115f85828601611117565b9150509250929050565b5f60208201905061117c5f830184611004565b92915050565b5f5ffd5b5f5ffd5b7f4e487b71000000000000000000000000000000000000000000000000000000005f52604160045260245ffd5b6111c082610fa2565b810181811067ffffffffffffffff821117156111df576111de61118a565b5b80604052505050565b5f6111f1610f0b565b90506111fd82826111b7565b919050565b5f67ffffffffffffffff82111561121c5761121b61118a565b5b61122582610fa2565b9050602081019050919050565b828183375f83830152505050565b5f61125261124d84611202565b6111e8565b90508281526020810184848401111561126e5761126d611186565b5b611279848285611232565b509392505050565b5f82601f83011261129557611294611182565b5b81356112a5848260208601611240565b91505092915050565b5f67ffffffffffffffff8211156112c8576112c761118a565b5b602082029050602081019050919050565b5f5ffd5b5f6112ef6112ea846112ae565b6111e8565b90508083825260208201905060208402830185811115611312576113116112d9565b5b835b8181101561135957803567ffffffffffffffff81111561133757611336611182565b5b8086016113448982611281565b85526020850194505050602081019050611314565b5050509392505050565b5f82601f83011261137757611376611182565b5b81356113878482602086016112dd565b91505092915050565b5f5f5f606084860312156113a7576113a6610f14565b5b5f84013567ffffffffffffffff8111156113c4576113c3610f18565b5b6113d086828701611281565b935050602084013567ffffffffffffffff8111156113f1576113f0610f18565b5b6113fd86828701611363565b925050604061140e86828701610f3b565b9150509250925092565b5f60208201905061142b5f830184610fea565b92915050565b5f5f5f6060848603121561144857611447610f14565b5b5f61145586828701611117565b935050602061146686828701610f3b565b925050604061147786828701610f3b565b9150509250925092565b5f5f5f6060848603121561149857611497610f14565b5b5f6114a586828701610f3b565b93505060206114b686828701610f3b565b92505060406114c786828701610f3b565b9150509250925092565b5f81519050919050565b5f82825260208201905092915050565b5f819050602082019050919050565b5f82825260208201905092915050565b5f61151482610f7a565b61151e81856114fa565b935061152e818560208601610f94565b61153781610fa2565b840191505092915050565b61154b81610f1c565b82525050565b5f604083015f8301518482035f86015261156b828261150a565b91505060208301516115806020860182611542565b508091505092915050565b5f6115968383611551565b905092915050565b5f602082019050919050565b5f6115b4826114d1565b6115be81856114db565b9350836020820285016115d0856114eb565b805f5b8581101561160b57848403895281516115ec858261158b565b94506115f78361159e565b925060208a019950506001810190506115d3565b50829750879550505050505092915050565b5f60c0820190508181035f8301526116358189610fb2565b9050818103602083015261164981886115aa565b90506116586040830187610fea565b6116656060830186611004565b6116726080830185610fea565b61167f60a0830184610fea565b979650505050505050565b7f4e487b71000000000000000000000000000000000000000000000000000000005f52602260045260245ffd5b5f60028204905060018216806116ce57607f821691505b6020821081036116e1576116e061168a565b5b50919050565b7f4f6e6c7920746865206f7261636c652063616e207265736f6c766520746865205f8201527f6d61726b65740000000000000000000000000000000000000000000000000000602082015250565b5f611741602683610f84565b915061174c826116e7565b604082019050919050565b5f6020820190508181035f83015261176e81611735565b9050919050565b7f4d61726b65742068617320616c7265616479206265656e207265736f6c7665645f82015250565b5f6117a9602083610f84565b91506117b482611775565b602082019050919050565b5f6020820190508181035f8301526117d68161179d565b9050919050565b7f4d61726b657420686173206e6f7420656e6465642079657400000000000000005f82015250565b5f611811601883610f84565b915061181c826117dd565b602082019050919050565b5f6020820190508181035f83015261183e81611805565b9050919050565b7f496e76616c69642077696e6e696e67206f7574636f6d650000000000000000005f82015250565b5f611879601783610f84565b915061188482611845565b602082019050919050565b5f6020820190508181035f8301526118a68161186d565b9050919050565b7f4d61726b657420686173206e6f74206265656e207265736f6c766564000000005f82015250565b5f6118e1601c83610f84565b91506118ec826118ad565b602082019050919050565b5f6020820190508181035f83015261190e816118d5565b9050919050565b7f57696e6e696e677320616c726561647920636c61696d656400000000000000005f82015250565b5f611949601883610f84565b915061195482611915565b602082019050919050565b5f6020820190508181035f8301526119768161193d565b9050919050565b7f4e6f2077696e6e696e67206265747320746f20636c61696d00000000000000005f82015250565b5f6119b1601883610f84565b91506119bc8261197d565b602082019050919050565b5f6020820190508181035f8301526119de816119a5565b9050919050565b7f4e487b71000000000000000000000000000000000000000000000000000000005f52603260045260245ffd5b7f4e487b71000000000000000000000000000000000000000000000000000000005f52601160045260245ffd5b5f611a4982610f1c565b9150611a5483610f1c565b9250828202611a6281610f1c565b91508282048414831517611a7957611a78611a12565b5b5092915050565b7f4e487b71000000000000000000000000000000000000000000000000000000005f52601260045260245ffd5b5f611ab782610f1c565b9150611ac283610f1c565b925082611ad257611ad1611a80565b5b828204905092915050565b7f4f6e6c7920746865206f7261636c652063616e20616464207175657374696f6e5f8201527f7300000000000000000000000000000000000000000000000000000000000000602082015250565b5f611b37602183610f84565b9150611b4282611add565b604082019050919050565b5f6020820190508181035f830152611b6481611b2b565b9050919050565b5f611b7582610f1c565b91507fffffffffffffffffffffffffffffffffffffffffffffffffffffffffffffffff8203611ba757611ba6611a12565b5b600182019050919050565b5f819050815f5260205f209050919050565b5f6020601f8301049050919050565b5f82821b905092915050565b5f60088302611c0e7fffffffffffffffffffffffffffffffffffffffffffffffffffffffffffffffff82611bd3565b611c188683611bd3565b95508019841693508086168417925050509392505050565b5f819050919050565b5f611c53611c4e611c4984610f1c565b611c30565b610f1c565b9050919050565b5f819050919050565b611c6c83611c39565b611c80611c7882611c5a565b848454611bdf565b825550505050565b5f5f905090565b611c97611c88565b611ca2818484611c63565b505050565b5b81811015611cc557611cba5f82611c8f565b600181019050611ca8565b5050565b601f821115611d0a57611cdb81611bb2565b611ce484611bc4565b81016020851015611cf3578190505b611d07611cff85611bc4565b830182611ca7565b50505b505050565b5f82821c905092915050565b5f611d2a5f1984600802611d0f565b1980831691505092915050565b5f611d428383611d1b565b9150826002028217905092915050565b611d5b82610f7a565b67ffffffffffffffff811115611d7457611d7361118a565b5b611d7e82546116b7565b611d89828285611cc9565b5f60209050601f831160018114611dba575f8415611da8578287015190505b611db28582611d37565b865550611e19565b601f198416611dc886611bb2565b5f5b82811015611def57848901518255600182019150602085019450602081019050611dca565b86831015611e0c5784890151611e08601f891682611d1b565b8355505b6001600288020188555050505b505050505050565b5f81519050919050565b5f82825260208201905092915050565b5f819050602082019050919050565b5f611e55838361150a565b905092915050565b5f602082019050919050565b5f611e7382611e21565b611e7d8185611e2b565b935083602082028501611e8f85611e3b565b805f5b85811015611eca5784840389528151611eab8582611e4a565b9450611eb683611e5d565b925060208a01995050600181019050611e92565b50829750879550505050505092915050565b5f6060820190508181035f830152611ef48186610fb2565b90508181036020830152611f088185611e69565b9050611f176040830184610fea565b949350505050565b7f4d61726b657420686173206265656e207265736f6c76656400000000000000005f82015250565b5f611f53601883610f84565b9150611f5e82611f1f565b602082019050919050565b5f6020820190508181035f830152611f8081611f47565b9050919050565b7f4d61726b65742068617320656e646564000000000000000000000000000000005f82015250565b5f611fbb601083610f84565b9150611fc682611f87565b602082019050919050565b5f6020820190508181035f830152611fe881611faf565b9050919050565b7f496e76616c6964206f7574636f6d6520696e64657800000000000000000000005f82015250565b5f612023601583610f84565b915061202e82611fef565b602082019050919050565b5f6020820190508181035f83015261205081612017565b9050919050565b7f42657420616d6f756e74206d757374206d617463682073656e742045746865725f82015250565b5f61208b602083610f84565b915061209682612057565b602082019050919050565b5f6020820190508181035f8301526120b88161207f565b9050919050565b7f426574206d7573742062652067726561746572207468616e207a65726f0000005f82015250565b5f6120f3601d83610f84565b91506120fe826120bf565b602082019050919050565b5f6020820190508181035f830152612120816120e7565b9050919050565b5f61213182610f1c565b915061213c83610f1c565b925082820190508082111561215457612153611a12565b5b9291505056fea2646970667358221220ea8ef631d6a9b7b8e48cb6c4c9bc707f4b90677564df82f12956544f621080e564736f6c634300081c0033",
  "linkReferences": {},
  "deployedLinkReferences": {},
  "immutableReferences": {
    "31": [
      {
        "length": 32,
        "start": 826
      },
      {
        "length": 32,
        "start": 2175
      },
      {
        "length": 32,
        "start": 2253
      }
    ]
  },
  "inputSourceName": "project/contracts/agent_wallet.sol",
  "buildInfoId": "solc-0_8_28-a0d9acdb4ebe788cba2b6512dbf531734d3b02fa"
}